{
  "contractName": "CompanyFactory",
  "abi": [
    {
      "anonymous": false,
      "inputs": [
        {
          "indexed": true,
          "internalType": "contract Company",
          "name": "fundraiser",
          "type": "address"
        },
        {
          "indexed": true,
          "internalType": "address",
          "name": "owner",
          "type": "address"
        }
      ],
      "name": "CompanyCreated",
      "type": "event"
    },
    {
      "anonymous": false,
      "inputs": [
        {
          "indexed": false,
          "internalType": "address",
          "name": "companyAddress",
          "type": "address"
        },
        {
          "indexed": false,
          "internalType": "uint256",
          "name": "amount",
          "type": "uint256"
        },
        {
          "indexed": false,
          "internalType": "uint256",
          "name": "id",
          "type": "uint256"
        }
      ],
      "name": "ProductBought",
      "type": "event"
    },
    {
      "anonymous": false,
      "inputs": [
        {
          "indexed": false,
          "internalType": "address",
          "name": "companyAddress",
          "type": "address"
        },
        {
          "indexed": false,
          "internalType": "uint256",
          "name": "amount",
          "type": "uint256"
        },
        {
          "indexed": false,
          "internalType": "uint256",
          "name": "id",
          "type": "uint256"
        }
      ],
      "name": "ProductConfirmed",
      "type": "event"
    },
    {
      "inputs": [],
      "name": "currentId",
      "outputs": [
        {
          "internalType": "uint256",
          "name": "",
          "type": "uint256"
        }
      ],
      "stateMutability": "view",
      "type": "function"
    },
    {
      "inputs": [],
      "name": "currentProductId",
      "outputs": [
        {
          "internalType": "uint256",
          "name": "",
          "type": "uint256"
        }
      ],
      "stateMutability": "view",
      "type": "function"
    },
    {
      "stateMutability": "payable",
      "type": "receive"
    },
    {
      "inputs": [
        {
          "internalType": "string",
          "name": "name",
          "type": "string"
        },
        {
          "internalType": "address payable",
          "name": "beneficiary",
          "type": "address"
        }
      ],
      "name": "createCompany",
      "outputs": [],
      "stateMutability": "nonpayable",
      "type": "function"
    },
    {
      "inputs": [
        {
          "internalType": "address payable",
          "name": "companyAddress",
          "type": "address"
        },
        {
          "internalType": "uint256",
          "name": "amount",
          "type": "uint256"
        }
      ],
      "name": "buyProduct",
      "outputs": [
        {
          "internalType": "uint256",
          "name": "",
          "type": "uint256"
        }
      ],
      "stateMutability": "payable",
      "type": "function"
    },
    {
      "inputs": [
        {
          "internalType": "uint256",
          "name": "productId",
          "type": "uint256"
        }
      ],
      "name": "confirmProduct",
      "outputs": [],
      "stateMutability": "nonpayable",
      "type": "function"
    },
    {
      "inputs": [],
      "name": "companiesCount",
      "outputs": [
        {
          "internalType": "uint256",
          "name": "",
          "type": "uint256"
        }
      ],
      "stateMutability": "view",
      "type": "function"
    },
    {
      "inputs": [
        {
          "internalType": "uint256",
          "name": "limit",
          "type": "uint256"
        },
        {
          "internalType": "uint256",
          "name": "offset",
          "type": "uint256"
        }
      ],
      "name": "companys",
      "outputs": [
        {
          "internalType": "contract Company[]",
          "name": "coll",
          "type": "address[]"
        }
      ],
      "stateMutability": "view",
      "type": "function"
    }
  ],
  "bytecode": "0x608060405234801561001057600080fd5b50612692806100206000396000f3fe6080604052600436106200007f5760003560e01c8063a0e5964b1162000055578063a0e5964b146200012e578063cddb8e94146200015e578063e00dd1611462000194578063f22f2a1a14620001c45762000087565b80632efcbe86146200008c578063835331e114620000d057806394f976c314620001005762000087565b366200008757005b600080fd5b3480156200009957600080fd5b50620000b86004803603810190620000b2919062000bf2565b620001f2565b604051620000c7919062000fdf565b60405180910390f35b348015620000dd57600080fd5b50620000e86200040a565b604051620000f7919062001101565b60405180910390f35b3480156200010d57600080fd5b506200012c600480360381019062000126919062000bc6565b62000416565b005b3480156200013b57600080fd5b506200014662000787565b60405162000155919062001101565b60405180910390f35b6200017c600480360381019062000176919062000b2b565b6200078d565b6040516200018b919062001101565b60405180910390f35b348015620001a157600080fd5b50620001ac62000954565b604051620001bb919062001101565b60405180910390f35b348015620001d157600080fd5b50620001f06004803603810190620001ea919062000b6c565b6200095a565b005b6060620001fe6200040a565b82111562000243576040517f08c379a00000000000000000000000000000000000000000000000000000000081526004016200023a9062001025565b60405180910390fd5b600082620002506200040a565b6200025c9190620012a1565b90508381106200026d57836200026f565b805b9050601481106200028257601462000284565b805b90508067ffffffffffffffff811115620002c7577f4e487b7100000000000000000000000000000000000000000000000000000000600052604160045260246000fd5b604051908082528060200260200182016040528015620002f65781602001602082028036833780820191505090505b50915060005b8181101562000402576000818562000315919062001244565b815481106200034d577f4e487b7100000000000000000000000000000000000000000000000000000000600052603260045260246000fd5b9060005260206000200160009054906101000a900473ffffffffffffffffffffffffffffffffffffffff16838281518110620003b2577f4e487b7100000000000000000000000000000000000000000000000000000000600052603260045260246000fd5b602002602001019073ffffffffffffffffffffffffffffffffffffffff16908173ffffffffffffffffffffffffffffffffffffffff16815250508080620003f990620013f8565b915050620002fc565b505092915050565b60008080549050905090565b8060035410156200045e576040517f08c379a00000000000000000000000000000000000000000000000000000000081526004016200045590620010df565b60405180910390fd5b3373ffffffffffffffffffffffffffffffffffffffff166001600083815260200190815260200160002060020160009054906101000a900473ffffffffffffffffffffffffffffffffffffffff1673ffffffffffffffffffffffffffffffffffffffff161462000505576040517f08c379a0000000000000000000000000000000000000000000000000000000008152600401620004fc906200109b565b60405180910390fd5b600015156001600083815260200190815260200160002060040160009054906101000a900460ff1615151462000572576040517f08c379a00000000000000000000000000000000000000000000000000000000081526004016200056990620010bd565b60405180910390fd5b600060016000838152602001908152602001600020905060008160030154905060008260010160009054906101000a900473ffffffffffffffffffffffffffffffffffffffff1673ffffffffffffffffffffffffffffffffffffffff1682607b604051602401620005e4919062001069565b6040516020818303038152906040527f24ccab8f000000000000000000000000000000000000000000000000000000007bffffffffffffffffffffffffffffffffffffffffffffffffffffffff19166020820180517bffffffffffffffffffffffffffffffffffffffffffffffffffffffff838183161783525050505060405162000670919062000f89565b60006040518083038185875af1925050503d8060008114620006af576040519150601f19603f3d011682016040523d82523d6000602084013e620006b4565b606091505b5050905080620006fb576040517f08c379a0000000000000000000000000000000000000000000000000000000008152600401620006f29062001047565b60405180910390fd5b60018360040160006101000a81548160ff0219169083151502179055507fc71b7c565a095b85ec41ddae5f7e502b3b9bc74578f8a23031b5d8acd904cc818360010160009054906101000a900473ffffffffffffffffffffffffffffffffffffffff1684600301548560000154604051620007799392919062000fa2565b60405180910390a150505050565b60035481565b600081341015620007d5576040517f08c379a0000000000000000000000000000000000000000000000000000000008152600401620007cc9062001003565b60405180910390fd5b60036000815480929190620007ea90620013f8565b9190505550600354600160006003548152602001908152602001600020600001819055508260016000600354815260200190815260200160002060010160006101000a81548173ffffffffffffffffffffffffffffffffffffffff021916908373ffffffffffffffffffffffffffffffffffffffff1602179055508160016000600354815260200190815260200160002060030181905550600060016000600354815260200190815260200160002060040160006101000a81548160ff0219169083151502179055503360016000600354815260200190815260200160002060020160006101000a81548173ffffffffffffffffffffffffffffffffffffffff021916908373ffffffffffffffffffffffffffffffffffffffff1602179055507fc032f62758cac23a902e648ab54b6825665b9bc19e7cd0a8ab915cbf3eea4fa08383600354604051620009419392919062000fa2565b60405180910390a1600354905092915050565b60025481565b6000600254833384604051620009709062000a7d565b6200097f94939291906200111e565b604051809103906000f0801580156200099c573d6000803e3d6000fd5b5090506000819080600181540180825580915050600190039060005260206000200160009091909190916101000a81548173ffffffffffffffffffffffffffffffffffffffff021916908373ffffffffffffffffffffffffffffffffffffffff16021790555060016002600082825462000a17919062001244565b925050819055503373ffffffffffffffffffffffffffffffffffffffff168173ffffffffffffffffffffffffffffffffffffffff167f788398d6551ff56e32d287d0bdcd3a5611ef3af0a4ce1a879dc5f1f84f79bdcb60405160405180910390a3505050565b61117380620014ea83390190565b600062000aa262000a9c84620011a6565b62001172565b90508281526020810184848401111562000abb57600080fd5b62000ac8848285620013b3565b509392505050565b60008135905062000ae181620014b5565b92915050565b600082601f83011262000af957600080fd5b813562000b0b84826020860162000a8b565b91505092915050565b60008135905062000b2581620014cf565b92915050565b6000806040838503121562000b3f57600080fd5b600062000b4f8582860162000ad0565b925050602062000b628582860162000b14565b9150509250929050565b6000806040838503121562000b8057600080fd5b600083013567ffffffffffffffff81111562000b9b57600080fd5b62000ba98582860162000ae7565b925050602062000bbc8582860162000ad0565b9150509250929050565b60006020828403121562000bd957600080fd5b600062000be98482850162000b14565b91505092915050565b6000806040838503121562000c0657600080fd5b600062000c168582860162000b14565b925050602062000c298582860162000b14565b9150509250929050565b600062000c41838362000d21565b60208301905092915050565b62000c58816200133b565b82525050565b62000c6981620012f0565b82525050565b62000c7a81620012dc565b82525050565b600062000c8d82620011e9565b62000c99818562001217565b935062000ca683620011d9565b8060005b8381101562000cdd57815162000cc1888262000c33565b975062000cce836200120a565b92505060018101905062000caa565b5085935050505092915050565b600062000cf782620011f4565b62000d03818562001228565b935062000d15818560208601620013c2565b80840191505092915050565b62000d2c816200134f565b82525050565b62000d3d8162001377565b82525050565b600062000d5082620011ff565b62000d5c818562001233565b935062000d6e818560208601620013c2565b62000d7981620014a4565b840191505092915050565b600062000d9360158362001233565b91507f6e6f7420656e6f756e67682066756e642073656e7400000000000000000000006000830152602082019050919050565b600062000dd560148362001233565b91507f6f6666736574206f7574206f6620626f756e64730000000000000000000000006000830152602082019050919050565b600062000e17603a8362001233565b91507f416464726573733a20756e61626c6520746f2073656e642076616c75652c207260008301527f6563697069656e74206d617920686176652072657665727465640000000000006020830152604082019050919050565b600062000e7f60088362001233565b91507f63616c6c20666f6f0000000000000000000000000000000000000000000000006000830152602082019050919050565b600062000ec1600d8362001233565b91507f4e6f7420746865206f776e6572000000000000000000000000000000000000006000830152602082019050919050565b600062000f03601a8362001233565b91507f70726f6475637420686173206265656e20636f6e6669726d65640000000000006000830152602082019050919050565b600062000f4560148362001233565b91507f70726f64756374204964206e6f7420666f756e640000000000000000000000006000830152602082019050919050565b62000f838162001324565b82525050565b600062000f97828462000cea565b915081905092915050565b600060608201905062000fb9600083018662000c4d565b62000fc8602083018562000f78565b62000fd7604083018462000f78565b949350505050565b6000602082019050818103600083015262000ffb818462000c80565b905092915050565b600060208201905081810360008301526200101e8162000d84565b9050919050565b60006020820190508181036000830152620010408162000dc6565b9050919050565b60006020820190508181036000830152620010628162000e08565b9050919050565b60006040820190508181036000830152620010848162000e70565b905062001095602083018462000d32565b92915050565b60006020820190508181036000830152620010b68162000eb2565b9050919050565b60006020820190508181036000830152620010d88162000ef4565b9050919050565b60006020820190508181036000830152620010fa8162000f36565b9050919050565b600060208201905062001118600083018462000f78565b92915050565b600060808201905062001135600083018762000f78565b818103602083015262001149818662000d43565b90506200115a604083018562000c6f565b62001169606083018462000c5e565b95945050505050565b6000604051905081810181811067ffffffffffffffff821117156200119c576200119b62001475565b5b8060405250919050565b600067ffffffffffffffff821115620011c457620011c362001475565b5b601f19601f8301169050602081019050919050565b6000819050602082019050919050565b600081519050919050565b600081519050919050565b600081519050919050565b6000602082019050919050565b600082825260208201905092915050565b600081905092915050565b600082825260208201905092915050565b6000620012518262001324565b91506200125e8362001324565b9250827fffffffffffffffffffffffffffffffffffffffffffffffffffffffffffffffff0382111562001296576200129562001446565b5b828201905092915050565b6000620012ae8262001324565b9150620012bb8362001324565b925082821015620012d157620012d062001446565b5b828203905092915050565b6000620012e98262001304565b9050919050565b6000620012fd8262001304565b9050919050565b600073ffffffffffffffffffffffffffffffffffffffff82169050919050565b6000819050919050565b600060ff82169050919050565b600062001348826200138b565b9050919050565b60006200135c8262001363565b9050919050565b6000620013708262001304565b9050919050565b600062001384826200132e565b9050919050565b600062001398826200139f565b9050919050565b6000620013ac8262001304565b9050919050565b82818337600083830152505050565b60005b83811015620013e2578082015181840152602081019050620013c5565b83811115620013f2576000848401525b50505050565b6000620014058262001324565b91507fffffffffffffffffffffffffffffffffffffffffffffffffffffffffffffffff8214156200143b576200143a62001446565b5b600182019050919050565b7f4e487b7100000000000000000000000000000000000000000000000000000000600052601160045260246000fd5b7f4e487b7100000000000000000000000000000000000000000000000000000000600052604160045260246000fd5b6000601f19601f8301169050919050565b620014c081620012f0565b8114620014cc57600080fd5b50565b620014da8162001324565b8114620014e657600080fd5b5056fe60806040523480156200001157600080fd5b506040516200117338038062001173833981810160405281019062000037919062000306565b620000576200004b620000d360201b60201c565b620000db60201b60201c565b836001819055508260029080519060200190620000769291906200019f565b506200008882620000db60201b60201c565b80600360006101000a81548173ffffffffffffffffffffffffffffffffffffffff021916908373ffffffffffffffffffffffffffffffffffffffff160217905550505050506200055c565b600033905090565b60008060009054906101000a900473ffffffffffffffffffffffffffffffffffffffff169050816000806101000a81548173ffffffffffffffffffffffffffffffffffffffff021916908373ffffffffffffffffffffffffffffffffffffffff1602179055508173ffffffffffffffffffffffffffffffffffffffff168173ffffffffffffffffffffffffffffffffffffffff167f8be0079c531659141344cd1fd0a4f28419497f9722a3daafe3b4186f6b6457e060405160405180910390a35050565b828054620001ad906200047a565b90600052602060002090601f016020900481019282620001d157600085556200021d565b82601f10620001ec57805160ff19168380011785556200021d565b828001600101855582156200021d579182015b828111156200021c578251825591602001919060010190620001ff565b5b5090506200022c919062000230565b5090565b5b808211156200024b57600081600090555060010162000231565b5090565b6000620002666200026084620003bf565b6200038b565b9050828152602081018484840111156200027f57600080fd5b6200028c84828562000444565b509392505050565b600081519050620002a5816200050e565b92915050565b600081519050620002bc8162000528565b92915050565b600082601f830112620002d457600080fd5b8151620002e68482602086016200024f565b91505092915050565b600081519050620003008162000542565b92915050565b600080600080608085870312156200031d57600080fd5b60006200032d87828801620002ef565b945050602085015167ffffffffffffffff8111156200034b57600080fd5b6200035987828801620002c2565b93505060406200036c8782880162000294565b92505060606200037f87828801620002ab565b91505092959194509250565b6000604051905081810181811067ffffffffffffffff82111715620003b557620003b4620004df565b5b8060405250919050565b600067ffffffffffffffff821115620003dd57620003dc620004df565b5b601f19601f8301169050602081019050919050565b6000620003ff826200041a565b9050919050565b600062000413826200041a565b9050919050565b600073ffffffffffffffffffffffffffffffffffffffff82169050919050565b6000819050919050565b60005b838110156200046457808201518184015260208101905062000447565b8381111562000474576000848401525b50505050565b600060028204905060018216806200049357607f821691505b60208210811415620004aa57620004a9620004b0565b5b50919050565b7f4e487b7100000000000000000000000000000000000000000000000000000000600052602260045260246000fd5b7f4e487b7100000000000000000000000000000000000000000000000000000000600052604160045260246000fd5b6200051981620003f2565b81146200052557600080fd5b50565b620005338162000406565b81146200053f57600080fd5b50565b6200054d816200043a565b81146200055957600080fd5b50565b610c07806200056c6000396000f3fe6080604052600436106100955760003560e01c80638da5cb5b116100595780638da5cb5b14610181578063968ed600146101ac578063af640d0f146101d7578063b539125b14610202578063f2fde38b1461022d576100cf565b806306fdde03146100d45780631c31f710146100ff57806338af3eed146101285780633ccfd60b14610153578063715018a61461016a576100cf565b366100cf576100af3460045461025690919063ffffffff16565b600481905550600560008154809291906100c890610aeb565b9190505550005b600080fd5b3480156100e057600080fd5b506100e961026c565b6040516100f69190610949565b60405180910390f35b34801561010b57600080fd5b50610126600480360381019061012191906107de565b6102fa565b005b34801561013457600080fd5b5061013d6103ba565b60405161014a919061092e565b60405180910390f35b34801561015f57600080fd5b506101686103e0565b005b34801561017657600080fd5b5061017f610504565b005b34801561018d57600080fd5b5061019661058c565b6040516101a39190610913565b60405180910390f35b3480156101b857600080fd5b506101c16105b5565b6040516101ce91906109ab565b60405180910390f35b3480156101e357600080fd5b506101ec6105bb565b6040516101f991906109ab565b60405180910390f35b34801561020e57600080fd5b506102176105c1565b60405161022491906109ab565b60405180910390f35b34801561023957600080fd5b50610254600480360381019061024f91906107b5565b6105c7565b005b6000818361026491906109e2565b905092915050565b6002805461027990610ab9565b80601f01602080910402602001604051908101604052809291908181526020018280546102a590610ab9565b80156102f25780601f106102c7576101008083540402835291602001916102f2565b820191906000526020600020905b8154815290600101906020018083116102d557829003601f168201915b505050505081565b6103026106bf565b73ffffffffffffffffffffffffffffffffffffffff1661032061058c565b73ffffffffffffffffffffffffffffffffffffffff1614610376576040517f08c379a000000000000000000000000000000000000000000000000000000000815260040161036d9061098b565b60405180910390fd5b80600360006101000a81548173ffffffffffffffffffffffffffffffffffffffff021916908373ffffffffffffffffffffffffffffffffffffffff16021790555050565b600360009054906101000a900473ffffffffffffffffffffffffffffffffffffffff1681565b6103e86106bf565b73ffffffffffffffffffffffffffffffffffffffff1661040661058c565b73ffffffffffffffffffffffffffffffffffffffff161461045c576040517f08c379a00000000000000000000000000000000000000000000000000000000081526004016104539061098b565b60405180910390fd5b6000479050600360009054906101000a900473ffffffffffffffffffffffffffffffffffffffff1673ffffffffffffffffffffffffffffffffffffffff166108fc829081150290604051600060405180830381858888f193505050501580156104c9573d6000803e3d6000fd5b507f5b6b431d4476a211bb7d41c20d1aab9ae2321deee0d20be3d9fc9b1093fa6e3d816040516104f991906109ab565b60405180910390a150565b61050c6106bf565b73ffffffffffffffffffffffffffffffffffffffff1661052a61058c565b73ffffffffffffffffffffffffffffffffffffffff1614610580576040517f08c379a00000000000000000000000000000000000000000000000000000000081526004016105779061098b565b60405180910390fd5b61058a60006106c7565b565b60008060009054906101000a900473ffffffffffffffffffffffffffffffffffffffff16905090565b60045481565b60015481565b60055481565b6105cf6106bf565b73ffffffffffffffffffffffffffffffffffffffff166105ed61058c565b73ffffffffffffffffffffffffffffffffffffffff1614610643576040517f08c379a000000000000000000000000000000000000000000000000000000000815260040161063a9061098b565b60405180910390fd5b600073ffffffffffffffffffffffffffffffffffffffff168173ffffffffffffffffffffffffffffffffffffffff1614156106b3576040517f08c379a00000000000000000000000000000000000000000000000000000000081526004016106aa9061096b565b60405180910390fd5b6106bc816106c7565b50565b600033905090565b60008060009054906101000a900473ffffffffffffffffffffffffffffffffffffffff169050816000806101000a81548173ffffffffffffffffffffffffffffffffffffffff021916908373ffffffffffffffffffffffffffffffffffffffff1602179055508173ffffffffffffffffffffffffffffffffffffffff168173ffffffffffffffffffffffffffffffffffffffff167f8be0079c531659141344cd1fd0a4f28419497f9722a3daafe3b4186f6b6457e060405160405180910390a35050565b60008135905061079a81610ba3565b92915050565b6000813590506107af81610bba565b92915050565b6000602082840312156107c757600080fd5b60006107d58482850161078b565b91505092915050565b6000602082840312156107f057600080fd5b60006107fe848285016107a0565b91505092915050565b61081081610a4a565b82525050565b61081f81610a38565b82525050565b6000610830826109c6565b61083a81856109d1565b935061084a818560208601610a86565b61085381610b92565b840191505092915050565b600061086b6026836109d1565b91507f4f776e61626c653a206e6577206f776e657220697320746865207a65726f206160008301527f64647265737300000000000000000000000000000000000000000000000000006020830152604082019050919050565b60006108d16020836109d1565b91507f4f776e61626c653a2063616c6c6572206973206e6f7420746865206f776e65726000830152602082019050919050565b61090d81610a7c565b82525050565b60006020820190506109286000830184610816565b92915050565b60006020820190506109436000830184610807565b92915050565b600060208201905081810360008301526109638184610825565b905092915050565b600060208201905081810360008301526109848161085e565b9050919050565b600060208201905081810360008301526109a4816108c4565b9050919050565b60006020820190506109c06000830184610904565b92915050565b600081519050919050565b600082825260208201905092915050565b60006109ed82610a7c565b91506109f883610a7c565b9250827fffffffffffffffffffffffffffffffffffffffffffffffffffffffffffffffff03821115610a2d57610a2c610b34565b5b828201905092915050565b6000610a4382610a5c565b9050919050565b6000610a5582610a5c565b9050919050565b600073ffffffffffffffffffffffffffffffffffffffff82169050919050565b6000819050919050565b60005b83811015610aa4578082015181840152602081019050610a89565b83811115610ab3576000848401525b50505050565b60006002820490506001821680610ad157607f821691505b60208210811415610ae557610ae4610b63565b5b50919050565b6000610af682610a7c565b91507fffffffffffffffffffffffffffffffffffffffffffffffffffffffffffffffff821415610b2957610b28610b34565b5b600182019050919050565b7f4e487b7100000000000000000000000000000000000000000000000000000000600052601160045260246000fd5b7f4e487b7100000000000000000000000000000000000000000000000000000000600052602260045260246000fd5b6000601f19601f8301169050919050565b610bac81610a38565b8114610bb757600080fd5b50565b610bc381610a4a565b8114610bce57600080fd5b5056fea26469706673582212202bf906b9a6b557c29b5eb94990de31c2b75fd803e60cfbd891961f0f7f1402a464736f6c63430008000033a2646970667358221220406479ae033b532bf4d95bc86e371af366c54cdf97c9990507906069c845af0264736f6c63430008000033",
  "immutableReferences": {},
  "source": "// SPDX-License-Identifier: MIT\npragma solidity ^0.8.0;\n\nimport \"./Company.sol\";\n\ncontract CompanyFactory {\n  Company[] private _companies;\n\n  event CompanyCreated(Company indexed fundraiser, address indexed owner);\n  event ProductBought(address companyAddress, uint256 amount, uint256 id);\n  event ProductConfirmed(address companyAddress, uint256 amount, uint256 id);\n\n  struct PendingProduct {\n    uint256 productId;\n    address payable companyAddress;\n    address owner;\n    uint256 value;\n    bool confirmed;\n  }\n\n  mapping(uint256 => PendingProduct) private _pendingProducts;\n  uint256 constant maxLimit = 20;\n\n  uint256 public currentId;\n  uint256 public currentProductId;\n\n  function createCompany(\n    string memory name,\n    address payable beneficiary\n  )\n  public\n  {\n    Company company = new Company(\n      currentId,\n      name,\n      msg.sender,\n      beneficiary\n    );\n    _companies.push(company);\n    currentId += 1;\n    emit CompanyCreated(company, msg.sender);\n  }\n\n  //Buy a product\n  function buyProduct(address payable companyAddress, uint256 amount) public payable returns(uint256) {\n    require(msg.value >= amount, \"not enoungh fund sent\");\n    currentProductId++;\n    _pendingProducts[currentProductId].productId = currentProductId;\n    _pendingProducts[currentProductId].companyAddress = companyAddress;\n    _pendingProducts[currentProductId].value = amount;\n    _pendingProducts[currentProductId].confirmed = false;\n    _pendingProducts[currentProductId].owner = msg.sender;\n    emit ProductBought(companyAddress, amount, currentProductId);\n    return currentProductId;\n  }\n\n  //confirm a product received\n  function confirmProduct(uint256 productId) public {\n    require(currentProductId >= productId, \"product Id not found\");\n    require(_pendingProducts[productId].owner == msg.sender, \"Not the owner\");\n    require(_pendingProducts[productId].confirmed == false, \"product has been confirmed\");\n    PendingProduct storage pendingProduct = _pendingProducts[productId];\n    uint256 balance = pendingProduct.value;\n    (bool success, ) = pendingProduct.companyAddress.call{value: balance}(\n       abi.encodeWithSignature(\"foo(string,uint256)\", \"call foo\", 123)\n    );\n\n    require(success, \"Address: unable to send value, recipient may have reverted\");\n     \n    pendingProduct.confirmed = true;\n    emit ProductConfirmed(pendingProduct.companyAddress, pendingProduct.value, pendingProduct.productId);\n  }\n\n  // Query the number of companies in our smart contract\n  function companiesCount() public view returns(uint256) {\n    return _companies.length;\n  }\n\n  // Query all companies in our smart contract\n  function companys(uint256 limit, uint256 offset) \n    public \n    view\n    returns(Company[] memory coll)\n  {\n    require(offset <= companiesCount(), \"offset out of bounds\");\n    uint256 size = companiesCount() - offset;\n    // size should not exceed the maxLimit\n    size = size < limit ? size : limit;\n    size = size < maxLimit ? size : maxLimit;\n    coll = new Company[](size);\n\n    for(uint256 i = 0; i < size; i++) {\n      coll[i] = _companies[offset + i];\n    }\n    \n    return coll;\n  }\n\n  receive() external payable { }\n}",
  "sourcePath": "C:\\Users\\PASCHAL\\Downloads\\ShopBrave-main\\ShopBrave-main\\smart-contract\\contracts\\CompanyFactory.sol",
  "compiler": {
    "name": "solc",
    "version": "0.8.0+commit.c7dfd78e.Emscripten.clang"
  },
  "schemaVersion": "3.4.10",
  "updatedAt": "2023-08-25T21:43:52.931Z",
  "devdoc": {
    "kind": "dev",
    "methods": {},
    "version": 1
  },
  "userdoc": {
    "kind": "user",
    "methods": {},
    "version": 1
  }
}