{
  "contractName": "Company",
  "abi": [
    {
      "inputs": [
        {
          "internalType": "uint256",
          "name": "_id",
          "type": "uint256"
        },
        {
          "internalType": "string",
          "name": "_name",
          "type": "string"
        },
        {
          "internalType": "address",
          "name": "_custodian",
          "type": "address"
        },
        {
          "internalType": "address payable",
          "name": "_beneficiary",
          "type": "address"
        }
      ],
      "stateMutability": "nonpayable",
      "type": "constructor"
    },
    {
      "anonymous": false,
      "inputs": [
        {
          "indexed": true,
          "internalType": "address",
          "name": "donor",
          "type": "address"
        },
        {
          "indexed": false,
          "internalType": "uint256",
          "name": "value",
          "type": "uint256"
        }
      ],
      "name": "DonationReceived",
      "type": "event"
    },
    {
      "anonymous": false,
      "inputs": [
        {
          "indexed": true,
          "internalType": "address",
          "name": "previousOwner",
          "type": "address"
        },
        {
          "indexed": true,
          "internalType": "address",
          "name": "newOwner",
          "type": "address"
        }
      ],
      "name": "OwnershipTransferred",
      "type": "event"
    },
    {
      "anonymous": false,
      "inputs": [
        {
          "indexed": false,
          "internalType": "uint256",
          "name": "amount",
          "type": "uint256"
        }
      ],
      "name": "Withdraw",
      "type": "event"
    },
    {
      "inputs": [],
      "name": "beneficiary",
      "outputs": [
        {
          "internalType": "address payable",
          "name": "",
          "type": "address"
        }
      ],
      "stateMutability": "view",
      "type": "function"
    },
    {
      "inputs": [],
      "name": "id",
      "outputs": [
        {
          "internalType": "uint256",
          "name": "",
          "type": "uint256"
        }
      ],
      "stateMutability": "view",
      "type": "function"
    },
    {
      "inputs": [],
      "name": "name",
      "outputs": [
        {
          "internalType": "string",
          "name": "",
          "type": "string"
        }
      ],
      "stateMutability": "view",
      "type": "function"
    },
    {
      "inputs": [],
      "name": "owner",
      "outputs": [
        {
          "internalType": "address",
          "name": "",
          "type": "address"
        }
      ],
      "stateMutability": "view",
      "type": "function"
    },
    {
      "inputs": [],
      "name": "renounceOwnership",
      "outputs": [],
      "stateMutability": "nonpayable",
      "type": "function"
    },
    {
      "inputs": [],
      "name": "totalFunds",
      "outputs": [
        {
          "internalType": "uint256",
          "name": "",
          "type": "uint256"
        }
      ],
      "stateMutability": "view",
      "type": "function"
    },
    {
      "inputs": [],
      "name": "totalFundsCount",
      "outputs": [
        {
          "internalType": "uint256",
          "name": "",
          "type": "uint256"
        }
      ],
      "stateMutability": "view",
      "type": "function"
    },
    {
      "inputs": [
        {
          "internalType": "address",
          "name": "newOwner",
          "type": "address"
        }
      ],
      "name": "transferOwnership",
      "outputs": [],
      "stateMutability": "nonpayable",
      "type": "function"
    },
    {
      "stateMutability": "payable",
      "type": "receive"
    },
    {
      "inputs": [
        {
          "internalType": "address payable",
          "name": "_beneficiary",
          "type": "address"
        }
      ],
      "name": "setBeneficiary",
      "outputs": [],
      "stateMutability": "nonpayable",
      "type": "function"
    },
    {
      "inputs": [],
      "name": "withdraw",
      "outputs": [],
      "stateMutability": "nonpayable",
      "type": "function"
    }
  ],
  "bytecode": "0x60806040523480156200001157600080fd5b506040516200117338038062001173833981810160405281019062000037919062000306565b620000576200004b620000d360201b60201c565b620000db60201b60201c565b836001819055508260029080519060200190620000769291906200019f565b506200008882620000db60201b60201c565b80600360006101000a81548173ffffffffffffffffffffffffffffffffffffffff021916908373ffffffffffffffffffffffffffffffffffffffff160217905550505050506200055c565b600033905090565b60008060009054906101000a900473ffffffffffffffffffffffffffffffffffffffff169050816000806101000a81548173ffffffffffffffffffffffffffffffffffffffff021916908373ffffffffffffffffffffffffffffffffffffffff1602179055508173ffffffffffffffffffffffffffffffffffffffff168173ffffffffffffffffffffffffffffffffffffffff167f8be0079c531659141344cd1fd0a4f28419497f9722a3daafe3b4186f6b6457e060405160405180910390a35050565b828054620001ad906200047a565b90600052602060002090601f016020900481019282620001d157600085556200021d565b82601f10620001ec57805160ff19168380011785556200021d565b828001600101855582156200021d579182015b828111156200021c578251825591602001919060010190620001ff565b5b5090506200022c919062000230565b5090565b5b808211156200024b57600081600090555060010162000231565b5090565b6000620002666200026084620003bf565b6200038b565b9050828152602081018484840111156200027f57600080fd5b6200028c84828562000444565b509392505050565b600081519050620002a5816200050e565b92915050565b600081519050620002bc8162000528565b92915050565b600082601f830112620002d457600080fd5b8151620002e68482602086016200024f565b91505092915050565b600081519050620003008162000542565b92915050565b600080600080608085870312156200031d57600080fd5b60006200032d87828801620002ef565b945050602085015167ffffffffffffffff8111156200034b57600080fd5b6200035987828801620002c2565b93505060406200036c8782880162000294565b92505060606200037f87828801620002ab565b91505092959194509250565b6000604051905081810181811067ffffffffffffffff82111715620003b557620003b4620004df565b5b8060405250919050565b600067ffffffffffffffff821115620003dd57620003dc620004df565b5b601f19601f8301169050602081019050919050565b6000620003ff826200041a565b9050919050565b600062000413826200041a565b9050919050565b600073ffffffffffffffffffffffffffffffffffffffff82169050919050565b6000819050919050565b60005b838110156200046457808201518184015260208101905062000447565b8381111562000474576000848401525b50505050565b600060028204905060018216806200049357607f821691505b60208210811415620004aa57620004a9620004b0565b5b50919050565b7f4e487b7100000000000000000000000000000000000000000000000000000000600052602260045260246000fd5b7f4e487b7100000000000000000000000000000000000000000000000000000000600052604160045260246000fd5b6200051981620003f2565b81146200052557600080fd5b50565b620005338162000406565b81146200053f57600080fd5b50565b6200054d816200043a565b81146200055957600080fd5b50565b610c07806200056c6000396000f3fe6080604052600436106100955760003560e01c80638da5cb5b116100595780638da5cb5b14610181578063968ed600146101ac578063af640d0f146101d7578063b539125b14610202578063f2fde38b1461022d576100cf565b806306fdde03146100d45780631c31f710146100ff57806338af3eed146101285780633ccfd60b14610153578063715018a61461016a576100cf565b366100cf576100af3460045461025690919063ffffffff16565b600481905550600560008154809291906100c890610aeb565b9190505550005b600080fd5b3480156100e057600080fd5b506100e961026c565b6040516100f69190610949565b60405180910390f35b34801561010b57600080fd5b50610126600480360381019061012191906107de565b6102fa565b005b34801561013457600080fd5b5061013d6103ba565b60405161014a919061092e565b60405180910390f35b34801561015f57600080fd5b506101686103e0565b005b34801561017657600080fd5b5061017f610504565b005b34801561018d57600080fd5b5061019661058c565b6040516101a39190610913565b60405180910390f35b3480156101b857600080fd5b506101c16105b5565b6040516101ce91906109ab565b60405180910390f35b3480156101e357600080fd5b506101ec6105bb565b6040516101f991906109ab565b60405180910390f35b34801561020e57600080fd5b506102176105c1565b60405161022491906109ab565b60405180910390f35b34801561023957600080fd5b50610254600480360381019061024f91906107b5565b6105c7565b005b6000818361026491906109e2565b905092915050565b6002805461027990610ab9565b80601f01602080910402602001604051908101604052809291908181526020018280546102a590610ab9565b80156102f25780601f106102c7576101008083540402835291602001916102f2565b820191906000526020600020905b8154815290600101906020018083116102d557829003601f168201915b505050505081565b6103026106bf565b73ffffffffffffffffffffffffffffffffffffffff1661032061058c565b73ffffffffffffffffffffffffffffffffffffffff1614610376576040517f08c379a000000000000000000000000000000000000000000000000000000000815260040161036d9061098b565b60405180910390fd5b80600360006101000a81548173ffffffffffffffffffffffffffffffffffffffff021916908373ffffffffffffffffffffffffffffffffffffffff16021790555050565b600360009054906101000a900473ffffffffffffffffffffffffffffffffffffffff1681565b6103e86106bf565b73ffffffffffffffffffffffffffffffffffffffff1661040661058c565b73ffffffffffffffffffffffffffffffffffffffff161461045c576040517f08c379a00000000000000000000000000000000000000000000000000000000081526004016104539061098b565b60405180910390fd5b6000479050600360009054906101000a900473ffffffffffffffffffffffffffffffffffffffff1673ffffffffffffffffffffffffffffffffffffffff166108fc829081150290604051600060405180830381858888f193505050501580156104c9573d6000803e3d6000fd5b507f5b6b431d4476a211bb7d41c20d1aab9ae2321deee0d20be3d9fc9b1093fa6e3d816040516104f991906109ab565b60405180910390a150565b61050c6106bf565b73ffffffffffffffffffffffffffffffffffffffff1661052a61058c565b73ffffffffffffffffffffffffffffffffffffffff1614610580576040517f08c379a00000000000000000000000000000000000000000000000000000000081526004016105779061098b565b60405180910390fd5b61058a60006106c7565b565b60008060009054906101000a900473ffffffffffffffffffffffffffffffffffffffff16905090565b60045481565b60015481565b60055481565b6105cf6106bf565b73ffffffffffffffffffffffffffffffffffffffff166105ed61058c565b73ffffffffffffffffffffffffffffffffffffffff1614610643576040517f08c379a000000000000000000000000000000000000000000000000000000000815260040161063a9061098b565b60405180910390fd5b600073ffffffffffffffffffffffffffffffffffffffff168173ffffffffffffffffffffffffffffffffffffffff1614156106b3576040517f08c379a00000000000000000000000000000000000000000000000000000000081526004016106aa9061096b565b60405180910390fd5b6106bc816106c7565b50565b600033905090565b60008060009054906101000a900473ffffffffffffffffffffffffffffffffffffffff169050816000806101000a81548173ffffffffffffffffffffffffffffffffffffffff021916908373ffffffffffffffffffffffffffffffffffffffff1602179055508173ffffffffffffffffffffffffffffffffffffffff168173ffffffffffffffffffffffffffffffffffffffff167f8be0079c531659141344cd1fd0a4f28419497f9722a3daafe3b4186f6b6457e060405160405180910390a35050565b60008135905061079a81610ba3565b92915050565b6000813590506107af81610bba565b92915050565b6000602082840312156107c757600080fd5b60006107d58482850161078b565b91505092915050565b6000602082840312156107f057600080fd5b60006107fe848285016107a0565b91505092915050565b61081081610a4a565b82525050565b61081f81610a38565b82525050565b6000610830826109c6565b61083a81856109d1565b935061084a818560208601610a86565b61085381610b92565b840191505092915050565b600061086b6026836109d1565b91507f4f776e61626c653a206e6577206f776e657220697320746865207a65726f206160008301527f64647265737300000000000000000000000000000000000000000000000000006020830152604082019050919050565b60006108d16020836109d1565b91507f4f776e61626c653a2063616c6c6572206973206e6f7420746865206f776e65726000830152602082019050919050565b61090d81610a7c565b82525050565b60006020820190506109286000830184610816565b92915050565b60006020820190506109436000830184610807565b92915050565b600060208201905081810360008301526109638184610825565b905092915050565b600060208201905081810360008301526109848161085e565b9050919050565b600060208201905081810360008301526109a4816108c4565b9050919050565b60006020820190506109c06000830184610904565b92915050565b600081519050919050565b600082825260208201905092915050565b60006109ed82610a7c565b91506109f883610a7c565b9250827fffffffffffffffffffffffffffffffffffffffffffffffffffffffffffffffff03821115610a2d57610a2c610b34565b5b828201905092915050565b6000610a4382610a5c565b9050919050565b6000610a5582610a5c565b9050919050565b600073ffffffffffffffffffffffffffffffffffffffff82169050919050565b6000819050919050565b60005b83811015610aa4578082015181840152602081019050610a89565b83811115610ab3576000848401525b50505050565b60006002820490506001821680610ad157607f821691505b60208210811415610ae557610ae4610b63565b5b50919050565b6000610af682610a7c565b91507fffffffffffffffffffffffffffffffffffffffffffffffffffffffffffffffff821415610b2957610b28610b34565b5b600182019050919050565b7f4e487b7100000000000000000000000000000000000000000000000000000000600052601160045260246000fd5b7f4e487b7100000000000000000000000000000000000000000000000000000000600052602260045260246000fd5b6000601f19601f8301169050919050565b610bac81610a38565b8114610bb757600080fd5b50565b610bc381610a4a565b8114610bce57600080fd5b5056fea26469706673582212202bf906b9a6b557c29b5eb94990de31c2b75fd803e60cfbd891961f0f7f1402a464736f6c63430008000033",
  "immutableReferences": {},
  "source": "// SPDX-License-Identifier: MIT\npragma solidity ^0.8.0;\n\nimport \"./Ownable.sol\";\nimport \"./libraries/SafeMath.sol\";\n\ncontract Company is Ownable {\n  using SafeMath for uint256;   \n\n  event DonationReceived(address indexed donor, uint256 value);\n  event Withdraw(uint256 amount);\n\n  uint256 public id;\n  string public name;\n  address payable public beneficiary;\n  uint256 public totalFunds;\n  uint256 public totalFundsCount;\n\n  constructor(\n    uint256 _id,\n    string memory _name,\n    address _custodian,\n    address payable _beneficiary\n  )\n  {\n    id = _id;\n    name = _name;\n    _transferOwnership(_custodian);\n    beneficiary = _beneficiary;\n  }\n\n  // Set New Beneficiary of a Company\n  function setBeneficiary(address payable _beneficiary) public onlyOwner {\n    beneficiary = _beneficiary;\n  }\n\n  // Withdraw Function\n  function withdraw() public onlyOwner {\n    uint balance = address(this).balance;\n    beneficiary.transfer(balance);\n\n    emit Withdraw(balance);\n  }\n\n  receive() external payable {\n     totalFunds = totalFunds.add(msg.value);\n     totalFundsCount++;\n  }\n}",
  "sourcePath": "C:\\Users\\PASCHAL\\Downloads\\ShopBrave-main\\ShopBrave-main\\smart-contract\\contracts\\Company.sol",
  "compiler": {
    "name": "solc",
    "version": "0.8.0+commit.c7dfd78e.Emscripten.clang"
  },
  "schemaVersion": "3.4.10",
  "updatedAt": "2023-08-29T11:09:28.836Z",
  "devdoc": {
    "kind": "dev",
    "methods": {
      "owner()": {
        "details": "Returns the address of the current owner."
      },
      "renounceOwnership()": {
        "details": "Leaves the contract without owner. It will not be possible to call `onlyOwner` functions anymore. Can only be called by the current owner. NOTE: Renouncing ownership will leave the contract without an owner, thereby removing any functionality that is only available to the owner."
      },
      "transferOwnership(address)": {
        "details": "Transfers ownership of the contract to a new account (`newOwner`). Can only be called by the current owner."
      }
    },
    "version": 1
  },
  "userdoc": {
    "kind": "user",
    "methods": {},
    "version": 1
  }
}